:020000040800F2
:10000000782100202102000827230008691C00082D
:10001000792200086B040008C52C000800000000CD
:10002000000000000000000000000000890100083E
:10003000B704000800000000CD01000827270008D1
:100040003B0200083B0200083B0200083B0200089C
:100050003B0200083B020008C10800083B02000800
:100060003B0200083B0200083B0200083B0200087C
:100070003B0200083B0200083B0200083B0200086C
:100080003B0200083B0200083B0200083B0200085C
:100090003B0200083B0200083B0200083B0200084C
:1000A0003B0200083B0200083B0200083B0200083C
:1000B0003B0200083B0200080D2A00083B02000832
:1000C0003B0200083B0200083B0200083B0200081C
:1000D0003B0200083B0200083B0200083B0200080C
:1000E0003B0200083B0200083B02000800F002F857
:1000F00000F03AF80AA090E8000C82448344AAF188
:100100000107DA4501D100F02FF8AFF2090EBAE885
:100110000F0013F0010F18BFFB1A43F0010318473B
:10012000DC570000FC570000103A24BF78C878C1A3
:10013000FAD8520724BF30C830C144BF04680C60ED
:10014000704700000023002400250026103A28BF35
:1001500078C1FBD8520728BF30C148BF0B60704739
:100160001FB51FBD10B510BD00F045F91146FFF7D2
:10017000F7FF02F0C9FE00F063F903B4FFF7F2FFE6
:1001800003BC00F06BF90000224B19680868B0E866
:10019000F00F80F30988BFF36F8F4FF0000080F3FA
:1001A00011884EF00D0E70470000000006480068F0
:1001B000006880F3088862B661B6BFF34F8FBFF363
:1001C0006F8F00DF00BF00BF08ED00E0EFF3098094
:1001D000BFF36F8F0F4B1A6820E9F00F106008B55E
:1001E0004FF0500080F31188BFF34F8FBFF36F8F34
:1001F00003F0E2FD4FF0000080F31188BDE80840F5
:1002000019680868B0E8F00F80F30988BFF36F8FB2
:10021000704700BF3C000020EFF3058070470000EE
:100220000948804709480047FEE7FEE7FEE7FEE78A
:10023000FEE7FEE7FEE7FEE7FEE7FEE704480549C6
:10024000054A064B70470000A5270008ED0000088E
:10025000781B002078210020781D0020781D0020C8
:10026000032A40F2308010F0030C00F0158011F8E2
:10027000013BBCF1020F624498BF11F801CB00F8BA
:10028000013B38BF11F8013BA2F1040298BF00F80E
:1002900001CB38BF00F8013B11F0030300F0578099
:1002A000083AC0F0088051F8043B083A51F804CBF2
:1002B000A0E80810F5E7121D5CBF51F8043B40F8B8
:1002C000043BAFF30080D20724BF11F8013B11F8C3
:1002D00001CB48BF11F8012B24BF00F8013B00F807
:1002E00001CB48BF00F8012B704702F0FF0343EA3F
:1002F000032242EA024200F05EB84FF0000200B56D
:10030000134694469646203922BFA0E80C50A0E838
:100310000C50B1F12001BFF4F7AF090728BFA0E8E6
:100320000C5048BF0CC05DF804EB890028BF40F8B2
:10033000042B08BF704748BF20F8022B11F0804FF4
:1003400018BF00F8012B704770477047704710B511
:10035000203AC0F00B80B1E81850203AA0E81850BD
:10036000B1E81850A0E81850BFF4F5AF5FEA027C7E
:1003700024BFB1E81850A0E8185044BF18C918C0ED
:10038000BDE810405FEA827C24BF51F8043B40F88E
:10039000043B08BF7047D20728BF31F8023B48BF73
:1003A00011F8012B28BF20F8023B48BF00F8012BB1
:1003B00070474FF000020429C0F0128010F0030CC7
:1003C0003FF49DAFCCF1040CBCF1020F18BF00F854
:1003D000012BA8BF20F8022BA1EB0C01FFF78FBF68
:1003E0005FEAC17C24BF00F8012B00F8012B48BF55
:1003F00000F8012B7047754600F02CF8AE4605005A
:100400006946534620F00700854618B020B5FFF72F
:1004100015FFBDE820404FF000064FF000074FF0F9
:1004200000084FF0000B21F00701AC46ACE8C00912
:10043000ACE8C009ACE8C009ACE8C0098D4670471B
:1004400010B50446AFF300802046BDE81040FFF72A
:1004500094BE000000487047181B00200149182076
:10046000ABBEFEE7260002007047FEE710B502F0C3
:1004700075FD05498968401A0449884201D3012065
:1004800010BD002010BD000000000020C0270900A2
:1004900070B502242146002001F0A6FF00250020AF
:1004A00002F0E0F86D1CEDB2602DF8D3641CE4B2EC
:1004B000082CEFD370BD70472DE9F0432022F14F97
:1004C000F14CF24D89B010234FF00008E9B356010A
:1004D00001287DD004287CD005287BD0062831D186
:1004E000CDE900382023EA4A04212C2002F008F844
:1004F0000023092202212E2001F0D6FF002303222F
:1005000002213E2001F0D0FF01F0D0FE002705209F
:1005100002F017FDCDF81C80CDF82080CDE902480F
:10052000CDF81480CDF8188000230194CDF8108008
:100530001A4629463046CDF8008002F08BFD7F1C1C
:10054000052FE4DB09B0BDE8F083FFE74FF47F79C6
:10055000012840D040F20646042873D0052872D006
:100560000628EFD1CDE900281023CA4A03213620FE
:1005700001F0C6FF0023032202212E2001F094FF88
:100580000023062202213E2001F08EFF01F08EFEA4
:10059000C14D0024052002F0D4FC0023CDF81480C6
:1005A000CDF81880CDF81C80CDF82080CDF80480DF
:1005B000CDF80880CDF80C801A4619463046CDF8A3
:1005C0001080009502F046FD641C052CE2DBB9E7C3
:1005D000C7E028E1F8E0CDE900281023AF4A042164
:1005E000342001F08DFF00231A4602212E2001F055
:1005F0005BFF0023042202213E2001F055FFA84D9D
:10060000686808B301F06AFE0025052002F099FC35
:10061000CDF81C80CDF82080CDE90284CDF814807F
:10062000CDF818800022CDF80480CDF810803B462C
:1006300011464846CDF8008002F00CFD6D1C052DDA
:10064000E3DB7FE757E024E001F048FE954E00240D
:100650004FF47C77052002F074FCCDF81C80CDF8B7
:100660002080CDE902860023CDF81480CDF81880D3
:10067000CDF80480CDF810801A4619463846CDF8DA
:10068000008002F0E7FC641C052CE3DB02206860BC
:1006900058E7CDE900281023834A0421342001F0D3
:1006A0002FFF0023012202212E2001F0FDFE002356
:1006B000052202213E2001F0F7FE01F0DEFD0026BA
:1006C000052002F03EFCCDF81480CDF81880CDF85E
:1006D0001C800394002201940294CDF820802B46C4
:1006E00011464846CDF80080049402F0B3FC761C15
:1006F000052EE5DB26E7CDE9003820236B4A0421EF
:10070000302001F0FDFE0222002311462E2001F0D0
:10071000CBFE0023062202213E2001F0C5FE01F09F
:10072000C5FD634D0024052002F00BFC0023CDF82D
:100730001480CDF81880CDF81C80CDF82080CDF83D
:100740000480CDF80880CDF80C801A461946304652
:10075000CDF81080009502F07DFC641C052CE2DBD6
:10076000F0E6CDE900281023524A0421342001F09C
:10077000C7FE0023092202212E2001F095FE00234E
:10078000072202213E2001F08FFE01F08FFD00279D
:10079000052002F0D6FBCDF81C80CDF82080CDE9F5
:1007A0000248CDF81480CDF8188000230194CDF8CC
:1007B00010802A4619463046CDF8008002F04AFCE7
:1007C0007F1C052FE4DBBDE6CDE9002810233A4A63
:1007D0000421342001F094FE0023092202212E205E
:1007E00001F062FE0023082202213E2001F05CFE9F
:1007F00001F05CFDB94600254746052002F0A1FB4B
:1008000007970897CDE902470597069700230194BB
:1008100004974A4619463046009702F01BFC6D1CAF
:10082000052DEADB8EE6CDE900382023234A04219A
:100830002C2001F065FE0023092202212E2001F068
:1008400033FE0222002311463E2001F02DFE01F06E
:100850002DFDB94600254746052002F072FB07979B
:100860000897CDE90247059706970023019404975E
:100870001A4649463046009702F0ECFB6D1C052DE8
:10088000EADB5FE6000048420000A040000048C2EA
:1008900056570008565800080000A0C19657000897
:1008A000000000200000C842D65700081658000873
:1008B0000000C84196560008D65600081657000892
:1008C00010B5064C2068C00703D001F0BDF9012027
:1008D0002060BDE81040012000F0C8B814040140B9
:1008E00010B5064C2078002807D101F077FD01F003
:1008F00069FE012020700020607010BD0000002003
:1009000072B6FEE710B5084C207801280BD101F033
:100910006BFE01F061FD0020207001206070BDE8D9
:10092000104002F07BB910BD0000002070B50446F5
:1009300000F0A2F90546601C02D004480078044487
:1009400000F09AF9401BA042FAD370BD2C000020A1
:100950002DE9F04300233E4F0F2573E001229A401A
:100960000A406DD023F00304E619D6F808809C07EE
:100970004FEA147C05FA0CF909EA0804DFF8D48080
:10098000404502D14FF0000816E0DFF8CC8040452A
:1009900002D14FF001080FE0DFF8C080404502D1DE
:1009A0004FF0020808E0DFF8B880404502D14FF070
:1009B000030801E04FF0040808FA0CF8A04522D122
:1009C000284CD4F800C02CEA020CC4F800C0241D46
:1009D000D4F800C02CEA020CC4F800C0214C0C343E
:1009E000D4F800C02CEA020CC4F800C0241FD4F8CC
:1009F00000C02CEA020CC4F800C0D6F808C02CEAEB
:100A0000090CC6F808C0FF2A01D8064601E000F12B
:100A100004064FEA830401D9A4F12004D6F800C0EB
:100A200005FA04F82CEA080C4FF0040808FA04F858
:100A30004CEA080CC6F800C0C46824EA0204C4608A
:100A400003F1010331FA03F288D1BDE8F08300001D
:100A50000000014000080140000C0140001001406E
:100A6000001401400004014070470000044910B523
:100A70000A68024202D00860FFF7F6FF10BD0000CE
:100A8000140401402DE9F84FDFF8B8910024A9F1D2
:100A9000040B23460F2709F1040AABF1040EC9E049
:100AA0000125A5402A40AA427DD1674ED1F804C055
:100AB000ACEB0608B44532D014DCBCF1030F3AD0DD
:100AC00009DCBCF1000F2AD0BCF1010F1CD0BCF135
:100AD000020F31D11DE0BCF1110F17D0BCF1120F84
:100AE0002AD119E0B8F5881F19D006DCB8F5803F87
:100AF00015D0B8F5801F1FD111E0B8F5001F0ED03A
:100B0000B8F5041F18D10AE0CB6815E0CB681B1DAF
:100B100012E0CB6808330FE0CB680C330CE08B6835
:100B20002BB1012B4FF0080303D0456104E00423EF
:100B300002E0056100E00023FF2A01D8064601E03B
:100B400000F104064FEA840501D9A5F12005D6F885
:100B5000008007FA05FC28EA0C0803FA05F548EAC4
:100B60000508C6F800804D68ED0062D5374DAE69C6
:100B700046F00106AE61AD6924F0030605F00105FB
:100B80000095334D06EB050CDCF80850A607360F30
:100B900007FA06F825EA0805DFF8B880404503D1D2
:100BA0004FF0000817E044E0DFF8AC80404502D188
:100BB0004FF001080FE0DFF8A480404502D14FF06C
:100BC000020808E0DFF89880404502D14FF00308A2
:100BD00001E04FF0040808FA06F848EA0508CCF8E6
:100BE00008804D68D9F80060ED024D4601D51643E6
:100BF00000E096432E604D68DAF80060AD0255467D
:100C000001D5164300E096432E604D68DBF8006086
:100C1000AD035D4601D5164300E096432E604D6856
:100C2000DEF80060ED03754601D5164300E09643FB
:100C30002E60641C0D682A46E5407FF431AFBDE8A4
:100C4000F88F00000804014000001110001002405D
:100C50000000014000080140000C0140001001406C
:100C6000001401408068084000D0012070470AB19C
:100C7000016170470904FBE7014880687047000084
:100C80002C00002010B5040013D0242084F83D006F
:100C90002068016821F001010160204600F068F938
:100CA0000020206484F83D0044F8300FA0732073C6
:100CB00010BD012010BD000070B5040025D094F8CF
:100CC0003D00002520B984F83C50204600F06CF926
:100CD000242084F83D002068016821F001010160B2
:100CE0002068016841F4004101602068016821F436
:100CF0000041016000F03CFB4D4A6168914201D81F
:100D00004C4900E04C49884201D2012070BD4B495A
:100D10002368B0FBF1F15E6826F03F060E435E608B
:100D20006368934206D94FF4967359434FF47A732C
:100D3000B1FBF3F12368491C1E6A26F03F063143DC
:100D400019626168914210D84900401EB0FBF1F26F
:100D5000521CC2F30B02042A01D2042022E0B0FB91
:100D6000F1F0401CC0F30B001CE0A268F2B301EBF1
:100D7000C10303EB0116431EB3FBF6F35B1C43F404
:100D800080431B0549D092B301EBC10202EB011174
:100D9000401EB0FBF1F0401CC0F30B0040F480405B
:100DA00040F400402168CA694CF6FF739A4310432F
:100DB000C861D4E9071001432068026822F0C0022C
:100DC00011430160D4E9030101432068826848F2BD
:100DD000FF339A4311438160D4E905010843216838
:100DE000CA6822F0FF021043C86001E00EE016E07E
:100DF0002068016841F0010101602564202084F829
:100E00003D00256384F83E50002070BD01EB410693
:100E1000431EB3FBF6F35B1CB3E70120C2E701EB13
:100E20004101401EB0FBF1F0401CC0F30B00B7E7DE
:100E3000A086010080841E0000093D0040420F0092
:100E40002DE9FF4F83B09A46DDE91197934604469A
:100E5000DDF84080FFF710FF054694F83D0020289C
:100E60007FD11923012240492046009500F094FFCC
:100E7000002876D194F83C00012872D0012084F833
:100E80003C0020680168C90703D1016841F00101F5
:100E900001602068016821F400610160212084F86C
:100EA0003D00402084F83E0000262664C4F82480DB
:100EB000A4F82A90608D20852C48E062CDE9007569
:100EC00053465A462046049900F0E6FE70B930E0D9
:100ED0002A463946204601F005F858B1206C04280E
:100EE00004D12068016841F400710160012007B05D
:100EF000BDE8F08F606A216800780861606A401C74
:100F00006062218D491E89B22185628D521E6285E3
:100F100022685369DB435B070BD469B10078106129
:100F2000606A401C6062208D401E2085608D401EDE
:100F30006085208D0028CBD12A463946204600F016
:100F4000FFFE0028CAD154F83D0B016841F400713E
:100F50000160202004F81E09E67766770020C6E7C6
:100F6000FFE70220C3E70000020010000000FFFFBF
:100F700010B50068094988420FD10948C16921F4B8
:100F80000011C161074C40212046FFF7E1FC2046DB
:100F9000BDE810408021FFF7DBBC10BD00540040CD
:100FA00000100240000C014010B586B000210091F5
:100FB00001910291039100680F4988421AD10F4CA8
:100FC000A06940F00800A061A069694600F008002F
:100FD0000490C02000901220019003200390084844
:100FE000FFF750FDE06940F40010E061E06900F4B3
:100FF0000010049006B010BD0054004000100240E4
:10100000000C014070B5040013D021684CF6CC40B0
:101010000860216845F255500860D4E9000141603C
:101020002168A0688860FFF727FE054641F23C363C
:101030000DE0012070BD00BFFFF71EFE401BB04257
:1010400005D92068C068800701D0032070BD2068E2
:10105000C0688007F0D121684AF6AA200860002005
:1010600070BD00684AF6AA210160002070470000A8
:101070000248816802781144816070472C0000208A
:10108000074810B5016841F010010160032000F02D
:10109000A7F80F2000F006F800F050F8002010BD6F
:1010A0000020024030B505461F4887B0C16941F0B5
:1010B0000401C161C06906A900F00400009001A804
:1010C00000F036F90498B0B100F052F94000174929
:1010D000174AB0FBF1F11748491E0260416040F227
:1010E000E7320021C0E903218160816100F018FB33
:1010F000040003D015E000F03BF9E8E70D4800F0EC
:101100003DFB04000DD11E2000F03CF8102D07D24D
:10111000002229461E2000F043F80748056000E041
:10112000012407B0204630BD0010024040420F00AD
:1011300000080040C8010020300000200F4808B51A
:10114000816941F001018161816901F00101009132
:10115000C16941F08051C161C069002200F0805036
:1011600000900F21901E00F01BF80548416821F007
:10117000E06141F00071416008BD000000100240D4
:1011800000000140002809DB00F01F02012191400E
:101190004009800000F1E020C0F800117047000015
:1011A000F0B40E4B1B680C46C3F30223C3F10705D2
:1011B000042D00D90425191D072901D2002300E0C0
:1011C000DB1E012606FA05F1491E214099409E408A
:1011D000761E16403143F0BC01F075BD0CED00E009
:1011E000064900F0070208684FF6FF03184040EA7E
:1011F0000220034A10430860704700000CED00E035
:101200000000FA052DE9F0470F46050061D0434E76
:10121000306800F00700B84209D2306820F00700BB
:1012200038433060306800F00700B84251D1286878
:101230003B4C810712D5400703D5606840F4E0605D
:1012400060602878000703D5606840F460506060F3
:101250006068A96820F0F000084360602878C00743
:1012600028D06868012810D02168022810D089078A
:1012700000292EDA616821F0030101436160FFF764
:10128000FBFC804641F288390DE021688903EFE7D5
:101290008901EDE7FFF7F0FCA0EB0801494502D911
:1012A0000320BDE8F0876068696800F00C00B0EBCF
:1012B000810FEFD1306800F00700B8420BD93068D9
:1012C00020F0070038433060306800F00700B84273
:1012D00001D00120E5E72878400705D56068E96876
:1012E00020F4E060084360602878000706D5606855
:1012F000296920F4605040EAC100606000F058F8AD
:101300006168084AC1F30311515CC840064908608E
:1013100006480068FFF7C6FE0020C2E70020024032
:1013200000100240464A000838000020300000202B
:101330000F2202600C4A536803F0030343605368B2
:1013400003F0F0038360536803F4E063C360526802
:101350004FF4E06303EAD20202610448006800F03F
:1013600007000860704700000010024000200240A3
:101370000448054900684968044AC1F30221515CE8
:10138000C84070473800002000100240564A00084C
:101390000448054900684968044AC1F3C221515C08
:1013A000C84070473800002000100240564A00082C
:1013B0000E4A51680E4801F00C03042B11D0082B83
:1013C0000FD10C48C1F38343C903C05C0AD55168EF
:1013D000084AC1F34041921E515C054A5043B0FB9C
:1013E000F1F0704704494843704700000010024084
:1013F00000127A00364A000800093D002DE9F84F36
:10140000040070D02078C04DC00749D06868C0F390
:101410008100012807D06868C0F38100022809D143
:101420006868C00306D52868800339D5606800283D
:10143000E7D035E06068B0F5803F0BD010B1B0F573
:10144000A02F11D0286820F480302860286820F46C
:10145000802002E0286840F480302860606890B105
:10146000FFF70AFC06460AE0286840F4802028605E
:10147000F0E700BFFFF700FC801B642873D82868E2
:101480008003F7D50CE0FFF7F7FB064605E000BF49
:10149000FFF7F2FB801B6428F0D828688003F7D49C
:1014A00020789A4E80074FF001094FF0000839D597
:1014B000686810F00C0F07D06868C0F3810002283C
:1014C00009D16868C00306D42868800714D520694C
:1014D000012808D110E02069B0B1C6F80090FFF7EC
:1014E000CBFB074605E00AE1FFF7C6FBC01B02285D
:1014F000C4D828688007F7D52868616920F0F8000B
:1015000040EAC10028600DE0C6F80080FFF7B4FB98
:10151000074604E0FFF7B0FBC01B022823D8286869
:101520008007F7D4207800072CD57948A169D9B174
:10153000C0F80090FFF7A0FB074604E0FFF79CFB14
:10154000C01B02280FD8686A8007F7D571484FF48E
:10155000FA510068B0FBF1F0009000BF0098411E06
:101560000091FAD20EE080E0C0F80080FFF784FB23
:10157000074604E0FFF780FBC01B022875D8686AA5
:101580008007F7D42078400760D5E8690027C000BD
:1015900008D4E86940F08050E861E869012700F06C
:1015A000805000905C480168C90513D401688346E7
:1015B00041F480710160FFF75FFB824606E000BFE7
:1015C000FFF75AFBA0EB0A0064284ED8DBF80000B6
:1015D000C005F5D5E06801280AD008B1052813D068
:1015E000286A20F001002862286A20F0040002E046
:1015F000286A40F001002862E06841F2883B98B117
:10160000FFF73AFB82460BE0286A40F004002862AC
:10161000EEE700BFFFF730FBA0EB0A0159455AD8AF
:10162000286A8007F6D50CE0FFF726FB824605E026
:10163000FFF722FBA0EB0A0159454CD8286A800726
:10164000F6D41FB1E86920F08050E861E06988B302
:101650006968C1F38101022944D00228C6F860807C
:1016600004D0FFF709FB044638E034E0FFF704FB41
:10167000074604E0FFF700FBC01B02282BD82868B0
:101680008001F7D4206AB0F5803F05D16868A16871
:1016900020F4003008436860D4E908010843696811
:1016A00021F4741108436860C6F86090FFF7E4FA0B
:1016B000044606E025E000BFFFF7DEFA001B022823
:1016C00009D828688001F7D51BE000BFFFF7D4FADE
:1016D000001B022802D90320BDE8F88F286880018A
:1016E000F4D40EE00128F7D06868226A00F4803153
:1016F000914204D1616A00F47010884201D0012047
:10170000EAE70020E8E70000001002400000424243
:10171000800442423800002000700040704770474B
:1017200010B5040003D094F83D0010B107E001208B
:1017300010BD002084F83C00204600F01EF8022076
:1017400084F83D00211D206801F066F9012084F82D
:10175000460084F83E0084F83F0084F8400084F896
:10176000410084F8420084F8430084F8440084F87F
:10177000450084F83D00002010BD704790F83D10F2
:10178000012901D001207047022180F83D10016835
:10179000CA6842F00102CA6000680B49884208D05A
:1017A000B0F1804F05D00949884202D008498842EB
:1017B00004D1816801F00701062903D0016841F0D6
:1017C0000101016000207047002C0140000400402E
:1017D0000008004070472DE9F04104460068C668E3
:1017E00005694FF00007A90713D5B10711D5F91EF8
:1017F000016101202077206880698007204602D09F
:10180000FFF7E8FF04E000F07EF8204600F07CF8E7
:101810002777680716D5700714D521686FF0040084
:101820000861022020772068806910F4407F2046FC
:1018300002D0FFF7CFFF04E000F065F8204600F08B
:1018400063F82777280715D5300713D521686FF07F
:1018500008000861042020772068C06980072046BE
:1018600002D0FFF7B7FF04E000F04DF8204600F08B
:101870004BF82777E80616D5F00614D521686FF0E7
:1018800010000861082020772068C06910F4407FAC
:10189000204602D0FFF79EFF04E000F034F8204617
:1018A00000F032F82777E80708D0F00706D0216863
:1018B0006FF001000861204600F028F8280608D5DE
:1018C000300606D521686FF0800008612046FFF7DA
:1018D00025FF680608D5700606D521686FF0400020
:1018E0000861204600F01CF8A8060AD5B00608D505
:1018F00021686FF0200008612046BDE8F041FFF745
:101900000EBFBDE8F08170477047000000680349D2
:10191000884201D1FFF7ACBB7047000000080040CF
:10192000704770B5040004D094F84100002510B150
:1019300006E0012070BD84F84050204600F024F8F5
:10194000242084F841002068C16821F40051C1605E
:10195000204601F0CDF82068016921F49041016131
:101960002068416921F02A0141612068C16841F481
:101970000051C1606564202084F8410084F8420071
:101980006563002070BD000070B586B0002400942F
:1019900001940294039403682648254E02210322F1
:1019A0000515B3421ED1836943F480438361836983
:1019B00003F480430493836943F0040383618069E3
:1019C0001D4E00F0040004900802CDE900010392CE
:1019D00069463046FFF756F8CDE90054694630466F
:1019E000029420E0154EB3421FD1C36943F4802313
:1019F000C361C36903F480230493836943F008033C
:101A000083618069CDE9005100F00800CDE9032031
:101A10000B4D69462846FFF735F8E814CDE9000478
:101A2000694628460294FFF72DF806B070BD000005
:101A3000003801400010024000080140004800400A
:101A4000000C01402DE9F843044690F84100984607
:101A500016460D46202802D00220BDE8F88385B145
:101A60007EB100206064212084F84100FFF704F972
:101A7000A6848146E684A0682027B0F5805F02D066
:101A800003E00120E9E7206910B12E4600250EE0B1
:101A900000260CE08021204601F086F8A8B9C6B1E6
:101AA00016F8010B21684860E08C401EE084E08C51
:101AB0004B464FF00002CDF800800028EAD14FF0ED
:101AC0004001204601F070F840B184F841700320D5
:101AD000C3E735F8020BC0F30800E3E784F8417070
:101AE0000020BAE770B523488AB00578C5B1002157
:101AF0000170102000240346A1B1CDE900041E4A64
:101B00000021362000F0FCFC00F0BEFB022000F0BB
:101B1000E8FD002D2BD10AB0BDE8704000F0C6BB37
:101B20000121E5E7CDE90004144A0021362000F048
:101B3000E7FC00F0DDFD00F0C1FB012D17D1002511
:101B400040F24C46052001F0FCF900230594069470
:101B50000794089401940294039404941A46194635
:101B60003046009401F076FA6D1C052DEADB0AB0D0
:101B700070BD0000BD000020B6580008965800084F
:101B80007CB52C4C2078E0B30020207000F0CCFB1A
:101B900020784FF0000300284FF00A02194618463B
:101BA00039D000F081FC00230B221946102000F0F0
:101BB0007BFC00230D220021202000F075FC1E4834
:101BC0000026102500782B4680B31C4ACDE900562C
:101BD0000021362000F094FCCDE900561023184A6D
:101BE00000215E2000F08CFC10233A2200216E20A0
:101BF000009600F00BFC01F045F801F017F8012009
:101C000000E006E000F06DFD2078BDE87C4000F0CB
:101C10007DBD0120B9E700F047FC00230B221946E7
:101C2000102000F041FC00230C22C4E7FFE7054A26
:101C3000CCE70000BC000020BD000020B658000822
:101C4000365600089658000870B501F087F9054D22
:101C50000446E868201A322802D9FEF753FEEC60E9
:101C600070BD000000000020FEE701684A69D24311
:101C700052050FD46FF480624A61002140F8301F92
:101C8000202242738173026942F0040202610173EF
:101C900001207047002070472DE9F8430446006892
:101CA0000D46DDE9089701689846164641F48071B3
:101CB00001604B4600224FF001112046009700F0D2
:101CC0006BF848B120680068C00502D54FF4007079
:101CD00020640320BDE8F883216805F0FE00086158
:101CE0003B464A461549204600F09EF888B92068D0
:101CF0004169806900903A464946204600F0F2F872
:101D000048B1206C042804D12068016841F40071B6
:101D100001600120DEE7F5B2B8F1010F09D02168BA
:101D2000300A08613A464946204600F0DBF80028B0
:101D3000E7D1206805610020CCE700000200010027
:101D400070B516460D4604461EE02046FFF78DFF8F
:101D500008B1012070BD681C16D0FEF78DFF801BF6
:101D6000A84200D885B920684069C04340070BD518
:101D7000002044F8300F20216173A073216941F0E5
:101D8000200121612073E4E720684069C0434007D7
:101D9000DBD4002070BD00002DE9F04798461746BF
:101DA0000D460446C1F30746DDF820902AE000BF47
:101DB000B8F1FF3F26D0FEF75FFFA0EB09014145D8
:101DC00002D8B8F1000F1DD12068012E16D080690D
:101DD00025EA00000004000C12D00020B84211D106
:101DE000002044F8300F20216173A073216941F075
:101DF0002001216120730120BDE8F0874069E7E7F9
:101E00000120EBE72068012E0AD0806925EA000056
:101E10000004000C06D00020B842C9D00020EBE737
:101E20004069F3E70120F7E72DE9F04798461646A9
:101E30000D4604464FF000094FF0200AC1F3074752
:101E400023E020684069C043400515D4206801683C
:101E500041F40071016021686FF480604861C4F84A
:101E6000309084F83DA084F83E90216C41F004014C
:101E7000216484F83C9021E0701C06D0FEF7FCFE43
:101E8000A0EB0800B04203D816B1012F1FD021E00B
:101E90002068012F15D0806925EA00000004000C9D
:101EA00018D000BF44F8309F84F80DA084F80E903D
:101EB000216941F02001216184F80C900120BDE8E6
:101EC000F087406925EA00000004000CEAD1206890
:101ED000406901E02068806925EA00000004000CE8
:101EE000AFD1ECE770B516460D4604461EE020461D
:101EF000FFF7BBFE08B1012070BD681C16D0FEF7CD
:101F0000BBFE801BA84200D885B920684069C04349
:101F100000060BD5002044F8300F20216173A07318
:101F2000216941F0200121612073E4E720684069C4
:101F3000C0430006DBD4002070BD70472DE9F0419E
:101F4000FF26444F444D002434B1012C0BD0022C09
:101F50004FD0032C1BD15CE0002210212846FEF755
:101F600086FE012205E0012210212846FEF77FFEB1
:101F7000002208212846FEF77AFE01220421284685
:101F8000FEF775FE012202212846FEF770FE0520AD
:101F900000F0D7FF20212846FEF764FEA8B34021B9
:101FA0002846FEF75FFE88B380212846FEF75AFEDA
:101FB00068B301212948FEF755FE48B3641CE4B21A
:101FC000042CC1D3012210212846FEF750FE012225
:101FD00008212846FEF74BFE012204212846FEF781
:101FE00046FE012202212846FEF741FE3046BDE8AA
:101FF000F081012210212846FEF739FE0122082136
:102000002846FEF734FE0022B8E713E015E018E09A
:102010001BE0012210212846FEF729FE012208219B
:102020002846FEF724FE012204212846FEF71FFE63
:102030000022A8E717F82460C4E707EB840046787D
:10204000C0E707EB84008678BCE707EB8400C6781E
:10205000B8E700005E4C000800080140000C014099
:10206000FFF76BFF322000F06CFFFBE710B50B4A67
:1020700000210B4800F0A8FF0A4C084A002120610B
:102080002432094800F0A0FF044A60614832002170
:10209000064800F099FFA06110BD0000C849000883
:1020A0001B2700080000002061200008A927000865
:1020B0002DE9F04186B00025334800950195029541
:1020C0000395816941F010018161816901F010017E
:1020D0000491816941F020018161816901F0200151
:1020E0000491816941F004018161816901F0040179
:1020F0000491816941F0080181618069234F00F0FA
:1021000008004FF400540490002221463846FEF7A0
:10211000AEFDDFF87C8000221E214046FEF7A7FDC1
:10212000009401AA0124022682E87000694638461C
:10213000FEF7A8FC17486946CDE9004002964046E4
:10214000FEF7A0FC1E208DE8710069464046FEF7B0
:1021500099FCE020CDE90005694602944046FEF76F
:1021600091FCCDE9004569460B480294FEF78AFCD4
:10217000002205210620FFF713F80620FFF702F8DA
:1021800006B0BDE8F08100000010024000100140E0
:102190000008014000001110000C01400D4810B56E
:1021A0000B4901600C49416000214FF4804281607D
:1021B000C0E9031241618161C1610162FEF77CFDEA
:1021C000002803D0BDE81040FEF79ABB10BD000008
:1021D00000540040D8000020A0860100094810B536
:1021E000074901600321416040F6FF718160FEF7FD
:1021F00009FF002803D0BDE81040FEF781BB10BDE9
:10220000003000402C0100200C4810B50A49016044
:102210004FF4E1314160002181600C22C160C0E9CE
:1022200004128161C161FFF77CFB002803D0BDE887
:102230001040FEF765BB10BD00380140380100209A
:102240000C4810B50A4901604FF4E13141600021AA
:1022500081600C22C160C0E904128161C161FFF795
:1022600060FB002803D0BDE81040FEF749BB10BD5D
:102270000048004080010020FEE74FF416724FF442
:102280007A71002000F031B81CB506A1D1E9000137
:10229000CDE900010621684600F022FC0A20FEF785
:1022A00045FB1CBD01F3AB01006B00004FF4C8728D
:1022B0004FF47A71002000F018B800001CB505A199
:1022C000D1E90001CDE900010521684600F008FCD4
:1022D0001CBD000001FE98006B0000004FF4487226
:1022E0004FF47A710120AFF300800EB501238DF811
:1022F0000030F5238DF801308DF80200080A8DF8C2
:1023000003008DF80410100A8DF805008DF80620E2
:1023100000208DF807006B208DF808000921684621
:1023200000F0DEFB0EBDFEE770B5002404F1B00046
:10233000C0B200F06BF9002000F068F9102000F046
:1023400065F90025002000F08DF96D1CEDB2802D9F
:10235000F8D3641CE4B2082CE8D370BD10B58D200E
:1023600000F054F9142000F051F9BDE81040AF20FE
:1023700000F04CB970B54FF4FA70FEF7D7FA0F4879
:10238000FEF780FC0A2000F0DCFD0C48FEF794FC10
:102390000A2000F0D6FD0A4D0024285D00F036F931
:1023A000022000F0CEFD641CE4B2172CF5D3FFF739
:1023B000BBFFBDE87040FFF7D1BF0000D800002090
:1023C000C000002010B50446812000F01FF920460F
:1023D000BDE8104000F01AB9704700000149012023
:1023E000087070472800002010B50446B031C8B20C
:1023F00000F00CF9102040EA141000F007F904F086
:102400000F00BDE8104000F001B900002DE9F047D1
:10241000203A0024089E0F468146D5B27F2803D972
:1024200000208F1C8146FFB2102B394612D0FFF7D7
:10243000DBFF1B4905EB450001EB4005285D0EB1B4
:10244000C043C0B200F00EF9641CE4B2062CF5D310
:10245000BDE8F087FFF7C8FFDFF8488004EB0511FF
:1024600018F801000EB1C043C0B200F0FBF8641CC4
:10247000E4B2082CF2D37F1CF9B24846FFF7B4FF50
:102480000024474604EB05103844007A0EB1C043DF
:10249000C0B200F0E7F8641CE4B2082CF2D3D7E72E
:1024A0006E4C0008964E00082DE9F0411E46154678
:1024B0000F4680460024FFF797FF104800EB4515B4
:1024C000285D0EB1C043C0B200F0CCF8641CE4B289
:1024D000102CF5D37F1CF9B24046FFF785FF00248E
:1024E00005EB0400007C0EB1C043C0B200F0BAF8A6
:1024F000641CE4B2102CF3D3BDE8F08176540008DC
:102500002DE9FF5F0024DDE90E0AC01D98469146C3
:102510008B46C708254617E00BEB0500C1B20098B3
:10252000FFF762FF00260BE019F80400BAF1000F74
:1025300001D0C043C0B2641C00F094F8761CF6B21F
:102540004645F1D36D1CEDB2BD42E5D3BDE8FF9F1A
:102550002DE9FF4F81B00026DDE90EA91D46934607
:10256000804634464FEA5A0727E0281B401EC1B276
:102570000A2000F0DEFCBBFBF0F00A21B0FBF1F218
:1025800001FB120026B9691E8C4201DA48B101260E
:102590003030C2B207FB0480C0B25346CDF8009081
:1025A00006E007FB0480C0B253462022CDF800901D
:1025B0000299FFF72BFF641CE4B2AC42D5D305B0FF
:1025C000BDE8F08F10B5AE2000F020F8812000F0BB
:1025D0001DF8002000F01AF88D2000F017F8BDE873
:1025E0001040102000F012B810B58D2000F00EF849
:1025F000142000F00BF8812000F008F8CF2000F044
:1026000005F8BDE81040AF20AFF30080F1B584B00D
:1026100003246425012604AF1CE00097CDE9016581
:102620000123002278210E48FEF70AFC002814D06E
:10263000012803D0022801D003280BD10848FEF757
:1026400021FB012000F07DFC0548FEF735FB012051
:1026500000F077FC641EE4B2DFD205B0F0BD0000EC
:10266000D8000020F1B584B003246425012604AF0E
:102670001CE00097CDE901650123402278210E4836
:10268000FEF7DEFB002814D0012803D0022801D079
:1026900003280BD10848FEF7F5FA012000F051FCA1
:1026A0000548FEF709FB012000F04BFC641EE4B274
:1026B000DFD205B0F0BD0000D800002010B586B014
:1026C000089C8DE80F008DF810400020ADF8110037
:1026D0008DF8130014226946412000F0D9FB06B0A2
:1026E00010BD01B5012269464C2000F0D1FB08BDA8
:1026F00008B5054800224FF07C5300780090114641
:102700001046FFF7DBFF08BDBC00002001B5012229
:1027100069462B2000F0BCFB08BD4FF47A742046BC
:1027200000F00FFCFBE710B54FF0E020006901F06E
:1027300051FF012803D0BDE8104001F0C3BB10BD1C
:1027400030B58FB028216846FDF7D7FD14210AA8BF
:10275000FDF7D3FD0920012100904FF480300024C3
:1027600004910691CDE901040225CDE907504FF40B
:10277000E01009906846FEF741FE08B172B6FEE728
:102780000F20CDE90A054FF48060CDE90C4002210D
:102790000AA80E94FEF736FD002801D072B6FEE7B7
:1027A0000FB030BD704700000020B4B083468246B1
:1027B000804633903290FFF7C0FBFFF7DBFDFFF759
:1027C000B3FD00230A2219461846FFF76DFE0023C9
:1027D0000B2219461020FFF767FE00230C22194632
:1027E0002020FFF761FE00241025CDE900542B4680
:1027F0007E4A21463620FFF783FECDE900541023A0
:102800007B4A00215E20FFF77BFE10233A22002145
:102810006E200094FFF7FAFD764804707648047045
:1028200000F030FA00F002FA002000EB400302AAA8
:10283000012102F8231002EB8302401C5170002199
:10284000516011721028F0DBFFF778FB009000F068
:1028500085FB6A4C0546207820B9FDF707FE08B1D4
:10286000FEF73EF83298281AB0F57A7F03D964480B
:10287000FEF7F7FB3295207800287DD15FF0000449
:1028800004EB440702A800EB870610F827107170CC
:10289000009AA24201D0012200E0002200F8272085
:1028A000BAB901294AD1002075603072012C05D0D7
:1028B000052C03D0042C01D0062C41D151480078BE
:1028C00001283DD1FDF7E4FD4F49E0B20978FDF75D
:1028D000F3FD02A810F82700012820D1707802A982
:1028E00008BB012C07D0052C05D0042C03D0062CE6
:1028F00036D1012009E000200CE0012805D0052890
:1029000003D0042801D0062804D100EB400211F8BE
:1029100022204AB1401C1028EFDBFDF7B9FD02A8C8
:1029200010F8270050B11BE000F0FF09FDF7B0FDE3
:10293000354801784846FDF7BFFDF0E7307A78B9B1
:102940007068281AB0F5FA6F0AD314B1032C03D0BB
:1029500004E0FFF715F901E0FFF7C4F80120307239
:10296000641C102C8CDB339841F28831281A884281
:102970000ED900F0F3FA00E034E01421B0FBF1F2DC
:1029800001FB12001B495030087000F07BF93395B1
:10299000A5EB0B0041F65831884213D9164C267826
:1029A00000F0DCFA0A21B0FBF1F201FB120008286A
:1029B00001D2012000E000202070864201D000F00A
:1029C00035F9AB46A5EB0A0047F23051884209D9E8
:1029D00008F001007F30FFF7F5FC08F1010000F07E
:1029E000FF08AA460A2000F0ACFA2DE79658000826
:1029F00036560008BF000020BE0000200000002066
:102A00002C010020BD000020BC0000200148FEF782
:102A1000E2BE0000C8010020F0B50268194B1A4C54
:102A20001A4D4FF08047984205D0B84203D0A042DB
:102A300001D0A84203D122F070064A68324398427E
:102A400005D0B84203D0A04201D0A84203D122F45D
:102A50004074CA6822434C6922F08002224302601B
:102A60008A68C2620A688262984201D10969016378
:102A7000012141610169C90703D0016921F0010108
:102A80000161F0BD002C014000040040000800403E
:102A900001680C3151E8002F22F4907241E80023C4
:102AA000002BF5D10168143151E8002F22F001020A
:102AB00041E80023002BF5D1016B012909D1016800
:102AC0000C3151E8002F22F0100241E80023002BC6
:102AD000F5D1202180F842100021016370470000E9
:102AE0000A46014664230148FEF7ACBF800100207E
:102AF00070B5044600680169E26821F44051114351
:102B000001612169A0680843616908432168CA68B6
:102B100041F20C639A430243CA6020684169A2698A
:102B200021F44071114341611E492068884202D15D
:102B3000FEF72EFC01E0FEF71BFC00EBC00101EBF1
:102B40000012606864218000B2FBF0F3B3FBF1F384
:102B50006FF018067343B2FBF0F5B2FBF0F605EB2D
:102B60008305322303EB0515B5FBF1F5B6FBF1F652
:102B700005F0F00505EB0615B2FBF0F6B2FBF0F040
:102B8000B0FBF1F06FF01802504306EB800003EB4E
:102B90000010B0FBF1F0216800F00F0028448860BD
:102BA00070BD0000003801402DE9F84398461746F3
:102BB0000D460446089E24E0701C22D0FEF75CF807
:102BC000A0EB0800B0421AD8CEB12068C16849070E
:102BD00017D5802D15D0402D13D00168C9430907A2
:102BE0000FD401680025406800902046FFF750FF91
:102BF0000820606484F840500120BDE8F883032079
:102C0000FBE72068006835EA000004D00020B842E5
:102C1000D2D00020F1E70120F9E7000010B500F064
:102C20009DF90149886010BD000000207CB5134863
:102C3000007888B1042421466020FFF7D5FB0025E9
:102C40000020FFF70FFD6D1CEDB2202DF8D3641CA2
:102C5000E4B2082CEFD37CBD00242020CDE9000491
:102C60001023074A04216020FFF74AFC1023582252
:102C7000062174200094FFF7C9FB7CBDBE00002034
:102C8000565600087CB5002421467020FFF7ACFBA7
:102C900000250020FFF7E6FC6D1CEDB2102DF8D3E7
:102CA000641CE4B2022CEFD300211020CDE9000116
:102CB0000348022302787020FFF74AFC7CBD000025
:102CC000BF000020FEE70907090E002804DB00F121
:102CD000E02080F80014704700F00F0000F1E020C1
:102CE00080F8141D70472DE9FF5F1E46DDE90E8751
:102CF000DDF854B0DDF85CA0DDF840901546040026
:102D00007DD02621FDF7F9FAFE202070FA206070B0
:102D10000198E08494F82700A07094F82600E070F1
:102D2000280E84F82800290C84F829102A0A84F82F
:102D30002A2084F82B5020716171A271E571300E48
:102D400084F82C00310C84F82D10320A84F82E20DF
:102D500084F82F6020726172A272E6724FEA1861E5
:102D600084F830104FEA184284F831204FEA1823D3
:102D700084F8323084F8338021736273A37384F84B
:102D80000F80380E84F83400390C84F835103A0A74
:102D900084F8362084F8377020746174A274E77464
:102DA0004FEA196184F838104FEA194084F8390065
:102DB000217560751198010E84F83A10000C84F8A2
:102DC0003B00A175E0751298010E84F83C10000CD0
:102DD00084F83D00217660761398010E84F83E1049
:102DE000000C84F83F00A176E0761498010E84F878
:102DF0004810000C84F849002177607700E030E04B
:102E00004FEA1B6184F84A104FEA1B4084F84B00DC
:102E1000A177E0771698010E84F84C10000C84F826
:102E20004D0084F8201084F821004FEA1A6184F8DC
:102E30004E104FEA1A4084F84F0084F8221084F8AC
:102E400023002421204600F00FF824F8580F607862
:102E500004F8340C207804F8330C012004B0BDE8E9
:102E6000F09F0020FAE7000010B502464FF6FF7011
:102E7000064C07E012F8013B4340DBB234F8133054
:102E800083EA1020491E89B2F4D210BD5E4A0008C0
:102E900070B51C4C0E46C2B0A17D1546C9B105B136
:102EA000BEB1ADF80000ADF8025101F0A1FB4190B8
:102EB00036B12DB12A4631460DF10200FDF7D0F9A9
:102EC0006421A06801F038FA012805D0206A401C6E
:102ED0002062002042B070BD00252B466422694666
:102EE000206801F07DF801280AD0206A401C206289
:102EF00000231A461946A06801F072F82846E9E74F
:102F00000125F5E7E41A0020FEF7BAF8FFF718FCF0
:102F1000FFF7CEF8FFF742F9FFF776F9FFF790F9E0
:102F2000FFF75CF900F022F8FFF7A0F800F030F8A6
:102F3000FEE70246012000E05043491EC9B2FBD221
:102F4000704710B5EFF3058111B16FF0050403E090
:102F5000002408B100F034FE204610BDEFF30580D8
:102F600008B101F04BBB01F043BB0000EFF305805B
:102F700010B16FF0050070470448016811B14FF0BF
:102F8000FF30704701210160002070478C00002055
:102F900010B5EFF3058010B16FF0050010BD0848C3
:102FA0000168012902D04FF0FF3010BD054A002111
:102FB00082F8141D0221016000F0B2FE002010BD55
:102FC0008C0000200BE000E02DE9FF414FEA0103F7
:102FD0004FF00005EFF30581039549BB40B380270F
:102FE000182100244AB3166806B1344696691EB10A
:102FF0003146761E382E02D21679F60703D000200D
:1030000004B0BDE8F081566906B1B708D2F808C02F
:10301000BCF1000F0DD0D5685C2D18D312693AB100
:1030200036B18DE806103A46214601F0A8FA039021
:103030000DE0D6685EB912694AB903AACDE900125B
:10304000BAB2214601F06EFA012800D00395039828
:10305000D6E700002DE9F04FA1B00DF1A80EDDE993
:1030600031549EE8C01FCDE908540DF10C0E4446C2
:103070008EE8101E3D4634468DE8380013460A4659
:1030800001460AA8FFF72FFE002807D06423262256
:103090000AA90548FEF7D6FC18B1002021B0BDE80A
:1030A000F08F0120FAE70000380100202DE9F041FF
:1030B000134C0F460546E6682068001D00F04CFCE6
:1030C000681C07D137B12168BDE8F0410D48091DE2
:1030D00000F092BC20683544B5424560216805D2B5
:1030E000A06BBDE8F041091D00F06EBC606B091DCE
:1030F00000F06AFCA06A854200D2A562BDE8F081BA
:103100003C000020000700202DE9F041054600F0BA
:103110007FFC2D4CA068401CA06020682B4F10B194
:10312000606930B32BE02560A068012827D1002614
:1031300006EB860007EB800000F038FC761C382E8A
:10314000F6D3234800F032FC2148143000F02EFC66
:103150001F48283000F02AFC1D483C3000F026FCB7
:103160001B48503000F022FC194860631430A06303
:1031700005E02068E96AC06A884200D82560606A74
:10318000401C60626864E86A2169884200D9206155
:1031900000EB800007EB8000291D00F02DFC00F003
:1031A00057FC606900280CD02068E96AC06A884230
:1031B00007D208494FF080500860BFF34F8FBFF32C
:1031C0006F8FBDE8F08100003C000020500200201D
:1031D000B006002004ED00E038B500F019FC104CFA
:1031E0002068C8B90F4800F0E1FB0E48143000F029
:1031F000DDFB0C48E060143020610A4B0020F03BFE
:10320000009003F1500210210A2000F071FE2060AE
:1032100010B105A100F09EFCBDE8384000F018BCDC
:103220007800002004080020546D72510000000056
:1032300030B4026C0B46002A0BD0C1681144C16047
:103240008468A14201D30168C16030BC1846FDF713
:1032500007B830BC70472DE9F041856B174604462E
:103260000026026C82B1C7B1E068FCF7F9FFE168A3
:10327000206C091AE1602268914202D2A168081A02
:10328000E060022F16D017E02068A8B9A06801F00E
:1032900021FA06460020A0600EE06068FCF7E0FF1F
:1032A000216C606808446060A168884204D320688B
:1032B000606001E005B16D1E6D1CA5633046BDE880
:1032C000F08110B5044690F8590058B101280CD08F
:1032D00002280FD0502080F31188BFF34F8FBFF327
:1032E0006F8FFEE7206B00F0C7FB2046BDE8104063
:1032F00000F0C2BB10BD000010484FF4406142070F
:1033000006D0C01D0D4920F00700411AC1F54061EB
:103310000B4A00230144C2E900030839183A21F09E
:10332000070111604B600B600B1AC0E9001393603A
:103330004FF000405360506170470000E40E0020E1
:10334000A8000020144E154CA6F29C474FF0805860
:10335000DFF84C9012E000BF00F05AFBF068C5683F
:10336000281D00F0F9FAA068401EA0606068401EA9
:10337000606000F06DFB2846FFF7A3FF606800283F
:10338000EAD138680128F9D9C9F80080BFF34F8F16
:10339000BFF36F8FF2E70000EC0600203C00002036
:1033A00004ED00E070B51D46049C51B1C4F8002046
:1033B000C4E90F010121204600F0CEFD84F84C50F5
:1033C00070BD2460F4E700002DE9F05F8846DDE978
:1033D0000B941546834691009A460A9EA522206BBF
:1033E000FCF783FF6FF00301206B01EB85010844BC
:1033F00020F00707780707D0502080F31188BFF32B
:103400004F8FBFF36F8FFEE70025B8F1000F0FD08D
:103410005FF00000221818F8001082F8341018F835
:10342000001011B1401C1028F4D384F8435001E07F
:1034300084F83450382E00D33726E662C4E9136589
:10344000201D00F0BEFA04F1180000F0BAFA246161
:10345000C6F138006462A061656584F85850524630
:103460005946384600F066FA2060B9F1000F01D0E5
:10347000C9F80040BDE8F09F30B5114900E01146A1
:103480000A688242FBD34B685C18844203D14068CF
:1034900018444860084643681C18944209D1084CF7
:1034A000183C2468A24209D052681A4442600A6853
:1034B00012680260814200D0086030BD0460F9E704
:1034C000A800002070B5002441600B4D00619142BE
:1034D00006D8D11A8269914206D2011D286907E0F7
:1034E0009A4203D2994201D3012403E0011DE86806
:1034F00000F06AFA204670BD7800002010B504463E
:1035000000F086FAA06B28B15FF0000400F0A0FA8A
:10351000204610BD0124F9E730B589B03C4D6EE07E
:103520000498002806DADDE90601059A9047049818
:10353000002864DB069C606910B1201D00F00CFAC5
:1035400003A800F0D7F8024604980A2857D2DFE80B
:1035500000F00505052D334A05052D3394F82800A4
:1035600040F0010084F828000599A069059B0144FA
:103570002046FFF7A7FF68B3216A2046884794F8E2
:10358000280040073BD5002000900598A169002342
:1035900042181946204601F0E3F9D8B9502080F3CB
:1035A0001188BFF34F8FBFF36F8FFEE714F8280F1A
:1035B00020F00100207022E094F8280040F0010083
:1035C00084F828000598A06128B181181346204688
:1035D000FFF778FF13E0502080F31188BFF34F8F7F
:1035E000BFF36F8FFEE794F82800810703D42046CD
:1035F00000F042FA03E020F0010084F828000022E5
:1036000004A9286800F0FCFD002889D109B030BD6C
:10361000780000202DE9FC410F46054600F0C4FB70
:1036200001A800F067F80446019818B101F006F906
:10363000BDE8FC81254EAFB130690068D0B30027EA
:10364000291B3A46306800F099FA01F0F7F8002893
:10365000EED11F494FF080500860BFF34F8FBFF38A
:103660006F8FE5E7A542EBD801F0E8F8F068274650
:10367000C068C468201D00F06FF994F82800410765
:1036800019D5A0692B4641193A462046FFF71AFF83
:10369000A8B100200346014600902A46204601F0CA
:1036A0005FF960B9502080F31188BFF34F8FBFF3EB
:1036B0006F8FFEE707E020F0010084F82800216A00
:1036C00020468847B4E70127BAE7000078000020C9
:1036D00004ED00E00648416B096829B1416BC968F7
:1036E000C9684968816270474FF0FF31FAE700000E
:1036F0003C00002070B5054600F07AFF064E0446F7
:10370000B068844203D200F009F8012000E00020F4
:1037100028602046B46070BD78000020F8B5194DCF
:1037200020E0C068C4680668201D00F015F9216A11
:103730002046884794F82800400713D5A0693044F4
:10374000B04206D924616060211DE86800F03CF9B0
:1037500008E000200346014600903246204601F072
:10376000FFF838B1E86801680029DAD12969C5E9AC
:103770000310F8BD502080F31188BFF34F8FBFF3C3
:103780006F8FFEE77800002008484068401C4FF02B
:10379000500080F3118804D0BFF34F8FBFF36F8FB9
:1037A000FEE7BFF34F8FBFF36F8FFEE7B00000203F
:1037B000074CE068016841B1C0680021D0F8000002
:1037C000FFF728FFFFF7A8FEF3E701210020F7E746
:1037D000780000202DE9F041044600F019F994F931
:1037E000455004F1240609E0606A48B1304600F013
:1037F000EDFF08B100F012FA6D1E6DB2002DF3DC82
:103800004FF0FF3684F8456000F022F900F000F92F
:1038100094F9445004F1100709E0206948B1384692
:1038200000F0D4FF08B100F0F9F96D1E6DB2002D63
:10383000F3DC84F84460BDE8F04100F009B9000011
:103840002DE9F0410546002700F0AEFA324E30680F
:1038500008B9FFF751FD706905424ED1C5B308356F
:1038600068070ED005F00700C0F10800054468079E
:1038700007D0502080F31188BFF34F8FBFF36F8FB5
:10388000FEE72DB37068854237D8234818300146CB
:103890000C6801E020460C466168A94202D221680A
:1038A0000029F7D131688C4227D007682168016070
:1038B00060680837411B10290FD96019420708D0EA
:1038C000502080F31188BFF34F8FBFF36F8FFEE757
:1038D00013E041606560FFF7CFFD61687068401AD2
:1038E0007060B268904200D2B060706901430020FD
:1038F000C4E90001F068401CF06000F09FFF780709
:1039000007D0502080F31188BFF34F8FBFF36F8F24
:10391000FEE73846BDE8F0819000002004490868C1
:1039200018B10868026D521C0265086870470000F3
:103930003C00002010B5031F4FF080741C601B1F5B
:1039400021F001011960191F024B0B601439403836
:103950000A6010BD89370008D0E9013201699A6018
:10396000D0E901235A604A68824201D182684A60E4
:10397000002202610868401E086008687047000065
:10398000034B036003F15C00086080201060704707
:103990002C080020044B036003F15C0008604FF426
:1039A0008070106070470000880A002000F1080154
:1039B0004FF0FF32C0E90112C160016100210160D6
:1039C000704700210161704730B50B685A1C02D066
:1039D00000F1080202E0026904E02246546825680A
:1039E0009D42FAD953684B6099608A6051600861C2
:1039F0000168491C016030BD42684A6093688B6071
:103A000093685960916008610168491C01607047C2
:103A1000502080F31188BFF34F8FBFF36F8F0A4997
:103A20004868401C486001280CD10848006810F024
:103A3000FF0F07D0502080F31188BFF34F8FBFF3E3
:103A40006F8FFEE770470000B000002004ED00E03B
:103A50000849486828B1401E486001D180F31188A8
:103A60007047502080F31188BFF34F8FBFF36F8FE3
:103A7000FEE70000B000002070B500282AD0164DE7
:103A8000A0F1080460686969084207D1502080F3FA
:103A90001188BFF34F8FBFF36F8FFEE722683AB1F3
:103AA000502080F31188BFF34F8FBFF36F8FFEE775
:103AB0008843606000F078F960686968084468606D
:103AC0002046FFF7D9FC2869401C2861BDE87040FA
:103AD00000F0B4BE70BD0000900000204FF0E02068
:103AE00000210161816105494FF47A720968B1FBD7
:103AF000F2F1491E41610721016170473800002041
:103B000010B5FCF789FB114910280ED300F1E02015
:103B100090F8F0030A78904207D2502080F3118881
:103B2000BFF34F8FBFF36F8FFEE7094800688968C6
:103B300000F4E060884207D9502080F31188BFF379
:103B40004F8FBFF36F8FFEE710BD0000B000002065
:103B50000CED00E010B5084B002200BF53F83240D6
:103B60001CB1521C082AF9D310BD43F8321003EBE4
:103B7000C201486010BD00001002002070B515465B
:103B80000E460446FFF744FF94F944100020491CF8
:103B900001D184F8440094F94510491C01D184F8FE
:103BA0004500FFF755FFA06B28B92A46314604F1BE
:103BB000240000F051F82046BDE87040FFF70ABE2F
:103BC00010B5020014D00F48006B38B1502080F3BC
:103BD0001188BFF34F8FBFF36F8FFEE700F0E4F85B
:103BE00000211046FFF762FA00F028FE002807D1F6
:103BF00005494FF080500860BFF34F8FBFF36F8FC0
:103C000010BD00003C00002004ED00E002490A6AFB
:103C10000260C968416070473C00002001490120F2
:103C2000C86170473C00002010B50C4650B10949EE
:103C300009681831FFF7C8FE2046BDE81040012191
:103C4000FFF734BA502080F31188BFF34F8FBFF3D2
:103C50006F8FFEE73C00002070B514460D4668B13A
:103C60000A4909681831FFF7C7FE0CB14FF0FF355C
:103C700021462846BDE87040FFF718BA502080F36F
:103C80001188BFF34F8FBFF36F8FFEE73C0000201A
:103C900070B504003ED0226DA2B1E06C884200D322
:103CA0000146E06A884235D0012A33D11A4D2A688C
:103CB00094420FD1502080F31188BFF34F8FBFF390
:103CC0006F8FFEE7502080F31188BFF34F8FBFF353
:103CD0006F8FFEE7E162A269002A02DBC1F13801C1
:103CE000A1610E4E00EB8000616906EB800081420D
:103CF00010D1201DFFF730FEE06A2969884200D903
:103D0000286100EB800006EB8000211DBDE87040BB
:103D1000FFF772BE70BD00003C0000205002002082
:103D200030B587B00024039405AA04A903A804941D
:103D3000FFF726FEDDE903010094CDE90110002321
:103D400015A11748059A00F01AFC164D0028E862E4
:103D50001FD000F0D5FD012809D0401C19D15020FA
:103D600080F31188BFF34F8FBFF36F8FFEE75020B2
:103D700080F31188BFF34F8FBFF36F8F4FF0FF3089
:103D8000A86201206861EC6007B0BDE8304000F037
:103D900045B807B030BD000049444C450000000064
:103DA000453300083C0000200248016B491C0163B8
:103DB000704700003C000020164810B5016B11B19F
:103DC0000121C16110BD0021C1610169124A01E0F8
:103DD000B9B1491E01EB810352F82330002BF7D013
:103DE00001EB810302EB830202F1080453685B6874
:103DF0005360A34201D15B685360DA6802600161DD
:103E000010BD502080F31188BFF34F8FBFF36F8F29
:103E1000FEE700003C000020500200201CB52649AF
:103E200008780190FF20087008788DF800009DF850
:103E300000009DF8002000F0F000904207D05020D4
:103E400080F31188BFF34F8FBFF36F8FFEE79DF8AC
:103E500000001A4C00F0500020700720A06005E020
:103E60009DF8002052008DF80020401E9DF8002093
:103E70001206F5D4A060032807D0502080F31188E3
:103E8000BFF34F8FBFF36F8FFEE74FF44070A0601A
:103E9000019808700A48016841F4700101600168E6
:103EA00041F070410160FFF719FE00206060FCF7EF
:103EB0007DF900201CBD000000E400E0B0000020FF
:103EC00020ED00E010B5502080F31188BFF34F8F34
:103ED000BFF36F8F00F09AFB18B104494FF0805088
:103EE0000860002080F3118810BD000004ED00E0A0
:103EF00038B5049D18B153B1CAB181B120E050204A
:103F000080F31188BFF34F8FBFF36F8FFEE7502010
:103F100080F31188BFF34F8FBFF36F8FFEE7502000
:103F200080F31188BFF34F8FBFF36F8FFEE739B176
:103F3000502080F31188BFF34F8FBFF36F8FFEE7E0
:103F400050241C46012384F846302B460094FFF78A
:103F500029FA204638BD000070B50D46040025D072
:103F6000FFF756FDD4E90F20216802FB0011A16084
:103F70000021A163216861600A46D4E90F01401E57
:103F800000FB0121E16021464FF0FF3001F8440FB2
:103F9000487004F110008DB1FFF708FD04F1240012
:103FA000FFF704FDFFF754FD012070BD502080F3A2
:103FB0001188BFF34F8FBFF36F8FFEE72169002990
:103FC000F0D000F003FC0028ECD004494FF0805002
:103FD0000860BFF34F8FBFF36F8FE3E704ED00E09E
:103FE0002DE9FF4782B01D468A464FF000080400C5
:103FF00003D0BAF1000F08D011E0502080F31188EF
:10400000BFF34F8FBFF36F8FFEE7206C38B15020A6
:1040100080F31188BFF34F8FBFF36F8FFEE7022D40
:104020000AD1E06B012807D0502080F31188BFF33C
:104030004F8FBFF36F8FFEE700F0CCFA3F4F4FF08A
:1040400000094FF0805648B9049838B1502080F3E9
:104050001188BFF34F8FBFF36F8FFEE7FFF7D8FCD8
:10406000A06BE16B884207D3022D05D00498D0B134
:10407000B8F1000F1AD01EE02A4651462046FFF73D
:10408000EAF8616A19B104F1240000F09FFB20B145
:104090003E60BFF34F8FBFF36F8FFFF7D9FC012056
:1040A00006B0BDE8F087FFF7D3FC22E06846FFF7D3
:1040B000ADFD4FF00108FFF7CBFCFFF775FEFFF7F2
:1040C000A7FC94F94400401C01D184F8449094F971
:1040D0004500401C01D184F84590FFF7B9FC04A9C4
:1040E000684600F0E5F930B12046FFF773FB00F0B9
:1040F000A5FB0020D4E7FFF78BFCA06BE16B8842A7
:1041000013D1FFF7A5FC04F110000499FFF78CFD13
:104110002046FFF75FFB00F091FB00289ED13E6038
:10412000BFF34F8FBFF36F8F98E7FFF791FC2046E7
:10413000FFF750FB00F082FB90E7000004ED00E089
:104140002DE9F0471F4690468946040003D0B9F197
:10415000000F08D011E0502080F31188BFF34F8F7B
:10416000BFF36F8FFEE7206C38B1502080F31188C9
:10417000BFF34F8FBFF36F8FFEE7022F0AD1E06BC3
:10418000012807D0502080F31188BFF34F8FBFF371
:104190006F8FFEE7FFF7B4FC5020EFF3118680F33A
:1041A0001188BFF34F8FBFF36F8FA06BE16B884215
:1041B00006D3022F04D0002086F31188BDE8F087D3
:1041C00094F94550A06B3A4649462046FFF743F81C
:1041D000681C04D06D1C84F845500120ECE7606A2F
:1041E0000028FAD004F1240000F0F0FA0028F4D0FE
:1041F000B8F1000FF1D00121C8F80010EDE7000080
:104200002DE9F747002683B08A46040003D0BAF1AF
:10421000000F08D011E0502080F31188BFF34F8FBA
:10422000BFF36F8FFEE7206C38B1502080F3118808
:10423000BFF34F8FBFF36F8FFEE700F0CBF9DFF8CE
:10424000F4804FF000094FF0805748B9059838B115
:10425000502080F31188BFF34F8FBFF36F8FFEE7BD
:10426000FFF7D6FBA56BC5B151462046FEF7E0FF30
:104270006D1EA563206950B104F1100000F0A6FA8C
:1042800028B1C8F80070BFF34F8FBFF36F8FFFF7EF
:10429000DFFB012006B0BDE8F087059808B11EB12C
:1042A00006E0FFF7D5FB27E06846FFF7AFFC0126E5
:1042B000FFF7CEFBFFF778FDFFF7AAFB94F9440068
:1042C000401C01D184F8449094F94500401C01D170
:1042D00084F84590FFF7BCFB05A9684600F0E8F8B4
:1042E000002820460AD0FFF775FA00F0A7FA20460A
:1042F000FFF704F90028B3D00020CBE7FFF7FEF862
:1043000090B104F124000599FFF78EFC2046FFF7D9
:1043100061FA00F093FA0028A2D1C8F80070BFF348
:104320004F8FBFF36F8F9BE72046FFF753FA00F0E4
:1043300085FA95E704ED00E02DE9F343002683B00C
:104340000400354609D0206C78B1502080F31188E4
:10435000BFF34F8FBFF36F8FFEE7502080F31188BC
:10436000BFF34F8FBFF36F8FFEE700F033F9DFF835
:104370003C814FF000094FF0805748B9049838B19C
:10438000502080F31188BFF34F8FBFF36F8FFEE78C
:10439000FFF73EFBA06BC8B1401EA063206810B9B8
:1043A000FFF7BCFAA060206950B104F1100000F0E2
:1043B0000DFA28B1C8F80070BFF34F8FBFF36F8FAD
:1043C000FFF746FB012005B0BDE8F083049808B173
:1043D00066B10FE03DB1502080F31188BFF34F8FDD
:1043E000BFF36F8FFEE7FFF733FB5DE06846FFF733
:1043F0000DFC0126FFF72CFBFFF7D6FCFFF708FBAF
:1044000094F94400401C01D184F8449094F945008B
:10441000401C01D184F84590FFF71AFB04A96846B7
:1044200000F046F80028204612D0FFF7D3F900F03C
:1044300005FA2046FFF762F80028A9D09DB3FFF7E0
:10444000E7FA606A50B3206B0068C0F1380126E0DB
:10445000FFF754F8E0B1206838B9FFF7D9FAA0683F
:1044600000F078F90546FFF7F3FA04F12400049907
:10447000FFF7DAFB2046FFF7ADF900F0DFF900287F
:1044800086D1C8F80070BFF34F8FBFF36F8F7FE7FF
:104490002046FFF79FF900F0D1F979E70021A068E5
:1044A000FFF7F6FB9FE7FFE700208CE704ED00E055
:1044B0002DE9F0410C46050011D0C4B1FFF7A8FA70
:1044C000174BDA686E682068911B471C17D02F685D
:1044D0001B6A9F4219D0964217D8012410E0502041
:1044E00080F31188BFF34F8FBFF36F8FFEE750202B
:1044F00080F31188BFF34F8FBFF36F8FFEE7002467
:10450000FFF7A6FA2046BDE8F081884205D9401A97
:1045100020602846FFF77AFBF1E700202060DCE707
:104520003C0000202DE9FF5F8346DDE90E879946B8
:1045300016468A469000FFF783F905001CD05C20E0
:10454000FFF77EF9040014D00020256384F8590099
:10455000CDE90240CDE900874B46324651465846E8
:10456000FEF732FF2046FEF7CFFD012004B0BDE884
:10457000F09F2846FFF780FA4FF0FF30F6E7F0B5DE
:1045800085B0DDE90B640A9DA6B1DCB15C2700971C
:104590002663022684F85960002604AFCDE902465E
:1045A000CDE90057FEF710FF2046FEF7ADFD049859
:1045B00005B0F0BD502080F31188BFF34F8FBFF3DB
:1045C0006F8FFEE7502080F31188BFF34F8FBFF34A
:1045D0006F8FFEE70548416919B1006B18B10020E3
:1045E0007047012070470220704700003C00002007
:1045F0000148C068704700003C00002010B5FFF77C
:104600007FFA0148C06810BD3C0000202DE9F04150
:104610002E4C0027206B28B1A069401CA0613846B1
:10462000BDE8F081E668761CE66013D1606B006837
:1046300038B1502080F31188BFF34F8FBFF36F8FD5
:10464000FEE7606BA16B6163A063206A401C20627F
:10465000FFF740F8A06ADFF87880864209D3606BE4
:104660000068A0B1606BC068C5686868864211D2F6
:10467000A0622068C06A00EB800158F82100012880
:1046800000D90127E0690028C9D00127C7E74FF00A
:10469000FF30EDE7281DFFF75FF9A86A18B105F1B3
:1046A0001800FFF759F9E86A2169884200D92061AA
:1046B00000EB800108EB8100291DFFF79DF9E86AF6
:1046C0002168C96A8842CAD30127C8E73C00002094
:1046D0005002002070B504004FF0000133D01B4D94
:1046E0002868844207D0502080F31188BFF34F8F91
:1046F000BFF36F8FFEE7206D38B1401E2065E36C7D
:10470000E26A9A421FD040B11DE0502080F3118828
:10471000BFF34F8FBFF36F8FFEE7201DFFF71CF92C
:10472000E06CE062C0F13800A061E06A296988426B
:1047300000D92861064900EB800001EB8000211DB3
:10474000FFF75AF90121084670BD00003C00002027
:104750005002002070B504004FF000002BD0194D1E
:10476000E16A2A68D26A914226D2A069002804DB55
:104770002868C06AC0F13800A061134E01EB8101C6
:10478000606906EB8101884211D1201DFFF7E4F832
:104790002868C06AE0622969884200D9286100EB74
:1047A000800006EB8000211DFFF726F902E0286853
:1047B000C06AE062012070BDE16C2A68D26A914251
:1047C000F8D370BD3C0000205002002070B5C068D6
:1047D000C46854B104F118000646FFF7BDF8144D43
:1047E000286B50B13146134815E0502080F31188F2
:1047F000BFF34F8FBFF36F8FFEE7201DFFF7ACF8BD
:10480000E06A2969884200D928610B4900EB8000E1
:1048100001EB8000211DFFF7EFF8E06A2968C96A03
:10482000884202D90120E86170BD002070BD0000FF
:104830003C000020D8060020500200202DE9F0475F
:104840002C4D00242746286B38B1FFF7E1F8286B80
:10485000401E2863286B40B146E0502080F3118849
:10486000BFF34F8FBFF36F8FFEE7A968224E012081
:10487000D1B3A6F5916980463068E0B1F068C468AC
:1048800004F11800FFF768F8201DFFF765F8E06AEB
:104890002969884200D9286100EB800109EB810079
:1048A000211DFFF7A9F8E06A2968C96A8842E3D3A5
:1048B000C5F81C80E0E70CB1FEF70CFFAC694CB109
:1048C0004FEA0806FFF7A2FE00B1EE61641EF9D1BF
:1048D0000020A861E86938B1084901273807086055
:1048E000BFF34F8FBFF36F8FFFF7B2F83846BDE8C5
:1048F000F08700003C000020D806002004ED00E016
:1049000010B586B0FEF768FC114C2068B8B10020E5
:104910000390049005AA04A903A8FFF73BF8DDE97A
:10492000032102208DE8070000230AA10B48059A05
:10493000FFF725FE606010B106B0012010BD5020C9
:1049400080F31188BFF34F8FBFF36F8FFEE7000036
:1049500078000020546D722053766300B137000850
:104960002DE9FF411E46134602000A9D4FF000004C
:1049700016D0144C2768002F0FD0CDE900130292F7
:10498000062917DAFFF726FE02284FF000030FD0A2
:10499000002269462068FFF723FB04B0BDE8F081E0
:1049A000502080F31188BFF34F8FBFF36F8FFEE766
:1049B0002A46EEE70023324669463846FFF7C0FB39
:1049C000EBE7000078000020F0580008000000002D
:1049D00000000000000000000000000000040000D3
:1049E000180000000000000000000000D858000877
:1049F00000000000000000000000000000000000B7
:104A00008001000020000000000000000000000005
:104A1000E458000800000000000000000000000052
:104A2000000000000004000018000000000000006A
:104A300000000000010202030405060708090A0B32
:104A40000C0D0E0F1010000000000000000001020D
:104A50000304060708090000000001020304000027
:104A6000C1C081C1400101C3C003800241C201C66F
:104A7000C006800741C70005C1C581C4400401CC00
:104A8000C00C800D41CD000FC1CF81CE400E000A79
:104A9000C1CA81CB400B01C9C009800841C801D8F7
:104AA000C018801941D9001BC1DB81DA401A001EF1
:104AB000C1DE81DF401F01DDC01D801C41DC001410
:104AC000C1D481D5401501D7C017801641D601D277
:104AD000C012801341D30011C1D181D0401001F028
:104AE000C030803141F10033C1F381F240320036F1
:104AF000C1F681F7403701F5C035803441F4003C00
:104B0000C1FC81FD403D01FFC03F803E41FE01FAF6
:104B1000C03A803B41FB0039C1F981F84038002898
:104B2000C1E881E9402901EBC02B802A41EA01EE6E
:104B3000C02E802F41EF002DC1ED81EC402C01E40F
:104B4000C024802541E50027C1E781E640260022F8
:104B5000C1E281E3402301E1C021802041E001A0C6
:104B6000C060806141A10063C1A381A24062006670
:104B7000C1A681A7406701A5C065806441A4006CFF
:104B8000C1AC81AD406D01AFC06F806E41AE01AA76
:104B9000C06A806B41AB0069C1A981A840680078F8
:104BA000C1B881B9407901BBC07B807A41BA01BEEE
:104BB000C07E807F41BF007DC1BD81BC407C01B40F
:104BC000C074807541B50077C1B781B64076007278
:104BD000C1B281B3407301B1C071807041B0005067
:104BE000C190819140510193C053805241920196EE
:104BF000C056805741970055C19581944054019CFF
:104C0000C05C805D419D005FC19F819E405E005AF7
:104C1000C19A819B405B0199C05980584198018895
:104C2000C04880494189004BC18B818A404A004E6F
:104C3000C18E818F404F018DC04D804C418C00440E
:104C4000C184818540450187C047804641860182F5
:104C5000C042804341830041C181818040400001C6
:104C600002030405060708090A0B0C0D0E0F0000CD
:104C7000000000000000002F0000000007000700F7
:104C800000147F147F1400242A7F2A120062640813
:104C90001323003649552250000005030000000090
:104CA0001C224100000041221C000014083E081490
:104CB0000008083E0808000000A06000000808087E
:104CC0000808000060600000002010080402003E98
:104CD0005149453E0000427F400000426151494633
:104CE000002141454B31001814127F100027454523
:104CF0004539003C4A494930000171090503003635
:104D00004949493600064949291E00003636000047
:104D1000000056360000000814224100001414144C
:104D20001414000041221408000201510906003247
:104D30004959513E007C1211127C007F4949493685
:104D4000003E41414122007F4141221C007F4949F0
:104D50004941007F09090901003E4149497A007F24
:104D60000808087F0000417F4100002040413F01CA
:104D7000007F08142241007F40404040007F020C29
:104D8000027F007F0408107F003E4141413E007FCA
:104D900009090906003E4151215E007F0919294693
:104DA0000046494949310001017F0101003F40406F
:104DB000403F001F2040201F003F4038403F00631D
:104DC000140814630007087008070061514945433F
:104DD00000007F41410000552A552A5500004141FD
:104DE0007F000004020102040040404040400000F7
:104DF00001020400002054545478007F4844443891
:104E000000384444442000384444487F0038545417
:104E1000541800087E0901020018A4A4A47C007F95
:104E2000080404780000447D4000004080847D0038
:104E3000007F102844000000417F4000007C0418DF
:104E40000478007C0804047800384444443800FCAA
:104E5000242424180018242418FC007C08040408C6
:104E600000485454542000043F444020003C40403B
:104E7000207C001C2040201C003C4030403C004472
:104E800028102844001CA0A0A07C004464544C447A
:104E9000141414141414000000000000000000009A
:104EA000000000000000000000F80000000000000A
:104EB00000333000000000100C06100C060000004B
:104EC00000000000000040C07840C0784000043F6F
:104ED00004043F040400007088FC0830000000183F
:104EE00020FF211E0000F008F000E0180000002163
:104EF0001C031E211E0000F00888700000001E2107
:104F000023241927211010160E00000000000000B5
:104F1000000000000000000000E018040200000093
:104F200000071820400000020418E00000000040C4
:104F3000201807000000404080F08040400002023E
:104F4000010F01020200000000F00000000001015A
:104F5000011F01010100000000000000000080B0FE
:104F600070000000000000000000000000000001D0
:104F700001010101010100000000000000000030FB
:104F80003000000000000000000080601804006095
:104F900018060100000000E010080810E000000FF3
:104FA000102020100F00001010F80000000000205A
:104FB000203F2020000000700808088870000030A2
:104FC000282422213000003008888848300000184A
:104FD000202020110E000000C02010F80000000763
:104FE0000424243F240000F80888880808000019D9
:104FF000212020110E0000E0108888180000000F0A
:10500000112020110E0000380808C83808000000E0
:10501000003F000000000070880808887000001C35
:10502000222121221C0000E010080810E0000000EE
:10503000312222110F00000000C0C000000000005B
:105040000030300000000000008000000000000080
:105050008060000000000000804020100800000177
:10506000020408102000404040404040400004043A
:105070000404040404000008102040800000002004
:10508000100804020100007048080808F000000041
:10509000003036010000C030C828E810E0000718D2
:1050A000272423140B000000C038E0000000203C3F
:1050B00023020227382008F8888888700000203FE3
:1050C000202020110E00C0300808080838000718FA
:1050D00020202010080008F808080810E000203FF1
:1050E000202020100F0008F88888E8081000203FD2
:1050F00020202320180008F88888E8081000203FA6
:10510000200003000000C03008080838000007181D
:105110002020221E020008F808000008F808203F9E
:10512000210101213F20000808F8080800000020A4
:10513000203F2020000000000808F8080800C08078
:1051400080807F00000008F888C028180800203FF1
:1051500020012638200008F8080000000000203F49
:1051600020202020300008F8F800F8F80800203F40
:10517000003F003F200008F830C00008F808203F3A
:10518000200007183F00E01008080810E0000F108A
:10519000202020100F0008F808080808F000203F21
:1051A000210101010000E01008080810E0000F18BC
:1051B000242438504F0008F8888888887000203FE1
:1051C0002000030C302000708808080838000038E0
:1051D000202121221C00180808F8080818000000E7
:1051E000203F2000000008F808000008F808001F11
:1051F000202020201F000878880000C83808000000
:1052000007380E010000F80800F80008F800033C19
:105210000700073C030008186880806818082030E1
:105220002C03032C30200838C800C83808000000C0
:10523000203F2000000010080808C8380800203867
:10524000262120201800000000FE020202000000BB
:10525000007F40404000000C30C000000000000013
:1052600000010638C00000020202FE0000000040FB
:1052700040407F0000000000040202020400000021
:10528000000000000000000000000000000080801E
:105290008080808080800002020400000000000006
:1052A00000000000000000008080808000000019E5
:1052B000242222223F2008F8008080000000003FC6
:1052C000112020110E000000008080800000000EE0
:1052D000112020201100000000808088F800000EBE
:1052E000112020103F200000808080800000001FDF
:1052F000222222221300008080F088888818002053
:10530000203F202000000000808080808000006B13
:1053100094949493600008F8008080800000203FFF
:10532000210000203F20008098980000000000200D
:10533000203F20200000000000809898000000C05E
:105340008080807F000008F8000080808000203F7F
:1053500024022D302000000808F800000000002082
:10536000203F202000008080808080808000203FBF
:1053700020003F20003F8080008080800000203F90
:10538000210000203F200000808080800000001F5E
:10539000202020201F00808000808000000080FFEF
:1053A000A12020110E000000008080808000000EEF
:1053B000112020A0FF80808080008080800020203D
:1053C0003F212000010000008080808080000033A9
:1053D000242424241900008080E080800000000044
:1053E000001F202000008080000000808000001F3F
:1053F000202020103F2080808000008080800001DD
:105400000E300806010080800080008080800F3010
:105410000C030C300F000080800080808000002092
:10542000312E0E31200080808000008080808081BD
:105430008E7018060100008080808080800000212E
:10544000302C2221300000000000807C020200008D
:105450000000003F40400002027C8000000000404D
:10546000403F0000000000000000FF0000000000BE
:105470000000FF000000000000000000FF4040406E
:105480004040400000004040404040407F4040409D
:10549000404040404000020202020202FE0202427C
:1054A000820202020200000000000000FF00000073
:1054B0000001060000000808080888780F0808089E
:1054C00008080808080020104846414141417F4132
:1054D00041414140400008080808C8380F08080842
:1054E00008080808080008040201FF414141414141
:1054F0004141FF0000008080848484FE828382809A
:10550000FF8080808000008040201807000000009D
:10551000FF000000000000FE0222DA8690485724B7
:10552000A4544C84800000FF0810080718121212BF
:10553000FF1212121000C8B88FE88888404848E867
:105540005F4848484000081808FF040400020B1296
:1055500022D20A0600000808E8292E28E80808C810
:105560000C0BE80808000000FF0949897F00000FC4
:1055700040807F000000000000FC2424242422221C
:105580002223222020004020180700FE42424242EF
:105590004242FE00000000F808080CCA494848C80A
:1055A000080808F8000000FF0000001F0808081F96
:1055B0000040807F00001010D0FF9014E4AFA4A43E
:1055C000A4AFE4040000040300FF00894B2A1A0E74
:1055D0001A2A4B888000101090909090901010FF25
:1055E000101011161000002060203F101010000352
:1055F0000C102040F8008080808080808080808037
:10560000808080808000000000000000000000001A
:10561000000000000000000008080808080808084A
:1056200008080800000010101010101010101010C2
:1056300010101010100000000000F8F0E0C08040D2
:1056400030300000000000000000073F2727372708
:1056500006040000000000FE020202020202020232
:1056600002020202FE0000FF010101314985854965
:1056700031010101FF0000FF00C0C00000C0C000F8
:1056800000C0C000FF00007F404141404041414018
:10569000404141407F00000000000080C0E0E0C0C9
:1056A00080000000000000000C0E070301FFFF0156
:1056B00003070E0C000000000000000000FFFF00C8
:1056C00000000000000000000000000000070700CC
:1056D00000000000000000000000000000E0E0000A
:1056E00000000000000000000000000000FFFF00BC
:1056F000000000000000002060E0C08000FFFF000C
:1057000080C0E060200000000000010303070703E1
:10571000030100000000000000000080E0F0B89CE1
:105720008E8080808080808080808080808080806B
:10573000800000000000000000000001070F1D397C
:1057400071010101010101010101010101010101D9
:1057500001000000000000000000008080808080C8
:1057600080808080808080808080808E9CB8F0E007
:1057700080000000000000000000000101010101A4
:10578000010101010101010101010171391D0F0731
:105790000100000000000000000080C0C0E0E0C088
:1057A000C0800000000000040607030100737300BE
:1057B00001030706040000000000000000CECE0038
:1057C00000000000000000000000000000070700CB
:1057D00000000000000000000000000000E0E00009
:1057E00000000000000000000000000000737300D3
:1057F000000000000000002060E0C08000CECE006D
:1058000080C0E060200000000000010303070703E0
:105810000301000000000000000000000000000084
:105820003078FCB630303030F0F00000000000007E
:105830000000000000000000000000000000000068
:1058400000000001000000007F7F00000000000059
:105850000000000000000000000000000000000048
:1058600000000000000000000000E0E060606066F2
:105870006CF860000000000000007F7F0000000660
:105880000301000000000000000000000000000014
:1058900000000000000000000000C07048484848B8
:1058A00070C000000000000000001F101615151643
:1058B000101F0000000000000000C0404040784879
:1058C00048C808780000000000001F1010101010D9
:1058D000101F0000000000004B6579706164546186
:1058E000736B000053797374656D5461736B0000C2
:1058F00064656661756C745461736B001C590008B3
:1059000000000020D800000028010008F459000819
:10591000D8000020A0200000440100080001000081
:105920000000000000000000000000000000000077
:105930000000000000000000FF0000000000000068
:105940000000000000000000010000001000000046
:105950000000000000127A000000000000000000BB
:105960000000000000000000000000000000000037
:105970000000000000000000000000000000000027
:105980000000000000000000000000000000000017
:105990000000000000000000000000000000000007
:1059A00000000000000000000000000000000000F7
:1059B00000000000000000000000000000000000E7
:1059C00000000000000000000000000000000000D7
:1059D000AAAAAAAA0000000000000000AED580A874
:1059E0003FD30040A1C8DA1281CFD9F1DB40A4A691
:0459F0008D14AF0063
:04000005080000ED02
:00000001FF
